:020000040800F2
:100000000000012029090008810800088308000871
:10001000850800088708000889080008000000001B
:10002000000000000000000000000000B1230008F4
:100030008B080008000000005124000895240008E7
:1000400071090008710900087109000871090008A8
:100050007109000871090008710900088D0800087D
:100060007109000871090008710900087109000888
:100070007109000871090008710900087109000878
:100080007109000871090008710900087109000868
:100090007109000871090008710900087109000858
:1000A0007109000871090008710900087109000848
:1000B0007109000871090008710900087109000838
:1000C0007109000871090008710900087109000828
:1000D0007109000871090008710900087109000818
:1000E0007109000871090008710900087109000808
:1000F00071090008710900087109000871090008F8
:1001000071090008710900087109000871090008E7
:1001100071090008710900089908000871090008B0
:1001200071090008710900087109000871090008C7
:1001300000000000000000000000000000000000BF
:1001400000000000000000000000000000000000AF
:10015000000000000000000000000000000000009F
:10016000000000000000000000000000000000008F
:10017000000000000000000000000000000000007F
:10018000000000000000000000000000000000006F
:10019000000000000000000000000000000000005F
:1001A000000000000000000000000000000000004F
:1001B000000000000000000000000000000000003F
:1001C000000000000000000000000000000000002F
:1001D000000000000000000000000000000000001F
:0401E0005FF8E0F1F3
:1001F00010B5054C237833B9044B13B10448AFF361
:1002000000800123237010BD3C040020000000008A
:10021000643F000808B5034B1BB103490348AFF323
:10022000008008BD0000000040040020643F00087A
:10023000844641EA000313F0030349D1403A23D333
:100240000B6803604B6843608B688360CB68C36056
:100250000B6903614B6943618B698361CB69C3613E
:100260000B6A03624B6A43628B6A8362CB6AC36226
:100270000B6B03634B6B43638B6B8363CB6BC3630E
:1002800040304031403ADBD230320BD30B68036050
:100290004B6843608B688360CB68C360103010315B
:1002A000103AF3D20C3205D351F8043B40F8043B2A
:1002B000043AF9D2043208D0D2071CBF11F8013B2E
:1002C00000F8013B01D30B8803806046704700BFF4
:1002D000082A13D38B07B1D010F00303AED0C3F1BB
:1002E0000403D21ADB071CBF11F8013B00F8013BE5
:1002F000A4D331F8023B20F8023B9FE7043AD9D35C
:10030000013A11F8013B00F8013BF9D20B78037078
:100310004B7843708B7883706046704708B5002037
:1003200003F09AF908BD000070B584B04FF6FF7075
:1003300000F0A0FC01260296182401944FF6FF75E8
:1003400000950023194A1946232000F00FFC02965D
:10035000019400950023164A2146232000F006FC54
:100360000296019400950023124A3021772000F074
:10037000FDFB182602964FF6FF75019500240094A8
:1003800006230D4A12883021232000F01DFC02961E
:10039000019500940523094A12884821232000F082
:1003A00013FC4FF47A7003F0E7F8E2E77C3F0008B3
:1003B0008C3F0008983F0008640400206804002077
:1003C00008B50B4A00210B4801F0DCFE0A4B18600F
:1003D0000A4A00210A4801F0D5FE0A4B18600A4A71
:1003E00000210A4801F0CEFE094B186008BD00BF8D
:1003F000E03F00081D0300085C040020BC3F00082B
:10040000290300085804002004400008550400088F
:100410006004002000B587B00B4B9A6942F48072EB
:100420009A619B6903F480730193019B02230293F9
:10043000064B03930023049302A9054800F054FEE1
:1004400007B05DF804FB00BF00100240000011106F
:100450000020014010B5184801F060FC174C012243
:100460001146204600F060FF01F0B4FF142000F0B8
:10047000B9F801F0D1FF00220121204600F054FF1D
:10048000FFF7C8FF01F0A6FF0D4B00221A7001F024
:10049000C3FF642003F070F801F09CFF094B1B8838
:1004A00003EB0313084A82FB03235B11074A138003
:1004B00001F0B2FFD2E700BF0C0500200020014090
:1004C00066040020680400201F85EB5164040020AE
:1004D00000B587B00B4B9A6942F480729A619B69B0
:1004E00003F480730193019B02230293064B039351
:1004F0000023049302A9054800F0F6FD07B05DF85B
:1005000004FB00BF00100240000021100020014049
:1005100008B50B4B1B782BB1012B0AD0084B0122DD
:100520001A7008BD074B1B6800225A62FFF7D0FF04
:10053000F4E7044B1B685A6A034B1A80EEE700BFCE
:10054000660400200C0500206804002030B589B046
:10055000002404940594069407941F4B9A6942F072
:1005600004029A619A6902F004020192019A9A695E
:1005700042F480729A619A6902F480720292029A3D
:100580009A6942F008029A619B6903F00803039399
:10059000039B124D22460121284600F0C5FE01238F
:1005A0000493059306940323079304A9284600F0B7
:1005B0009BFD022304930A4B0593069404A9284645
:1005C00000F092FD22460421072000F047FD07209D
:1005D00000F07CFD09B030BD001002400020014059
:1005E0000000111082B0019010E04FF4617014E02F
:1005F00001F58C3101F5A0714FF0E0239B699A421F
:10060000FADA9942F8DB019B1B1A0193019BABB10B
:10061000019BB3F5617FE8D801984FF0E0239A6918
:100620006FF0470101FB00210029E1DB4FF0E023DF
:100630009B699A42E7DD9942F8DDE4E702B0704732
:1006400008B50268034B9A4200D008BD00F0CEFC0A
:10065000FBE700BF0010004072B6FEE700B591B0A6
:100660002822002106A803F0BBFB0023019302937C
:10067000039304930593012206924FF4803307936A
:100680000A9202220D920E934FF4E0130F9306A8E4
:1006900000F074FE80B90F23019302210291002320
:1006A00003934FF480620492059301A801F098F837
:1006B00020B911B05DF804FBFFF7CEFFFFF7CCFFC8
:1006C00008B500F081FCFFF7C9FFFFF73FFF00F01E
:1006D00009F800F0EBF801F00DFDFFF771FE01F0F5
:1006E0002BFDFEE708B50E480E4B03604FF48273F6
:1006F000436000238360C360036143614FF4007271
:1007000082610822C2610362436283620A23C36278
:1007100001F0CCF900B908BDFFF79EFFFBE700BF71
:100720006C0400200030014000B587B00023029324
:100730000393049305930268124B9A4202D007B0C8
:100740005DF804FB03F560439A6942F480529A61B4
:100750009A6902F480520092009A9A6942F0040267
:100760009A619B6903F004030193019BA023029308
:10077000022303930323059302A9034800F0B4FC6A
:10078000DDE700BF003001400008014000B583B044
:10079000114B9A6942F001029A619A6902F00102D2
:1007A0000092009ADA6942F08052DA61DB6903F064
:1007B00080530193019B00220F216FF0010000F094
:1007C0004DFC064A536823F0E06343F00073536026
:1007D00003B05DF804FB00BF0010024000000140C0
:1007E00030B589B00446214BDA6942F01002DA6173
:1007F000DB6903F010030193019B02A903A801F038
:10080000BBF8069BCBB901F0A7F803461848A0FB3C
:1008100003239B0C013B1748174A026040F2E73262
:10082000C2604360002303618360836101F0F6FBD3
:10083000054630B1284609B030BD01F08DF84300BF
:10084000E4E70C4801F0A0FA05460028F2D1362072
:1008500000F03CFC0F2C01D90125EBE700222146DA
:10086000362000F0FBFB054B1C60E3E70010024064
:1008700083DE1B43C4040020001000400800002059
:10088000FEE7FEE7FEE7FEE7FEE7704708B5022059
:1008900000F050FD08BD000008B5024801F0B4FAB0
:1008A00008BD00BFC40400207047000000B583B03D
:1008B0000023009301930F480F4A026047224260D1
:1008C00083604FF6FF72C260836101F0A7FB50B9ED
:1008D0000023009301936946064801F0CBFB28B939
:1008E00003B05DF804FBFFF7B7FEF1E7FFF7B4FED6
:1008F000F6E700BF0C050020001400400268094B19
:100900009A4200D0704782B003F5FE33DA6942F0B4
:100910002002DA61DB6903F020030193019B02B03E
:10092000704700BF00140040FFF7BEFF0B480C49A2
:100930000C4A002302E0D458C4500433C4188C423B
:10094000F9D3094A094C002301E013600432A242A2
:10095000FBD303F021FAFFF7B3FE7047000000203D
:100960003C040020707400083C040020A41E0020F9
:10097000FEE708B500F0F4FA08BD08B500F004FB86
:1009800008BD10B5044600F0C3FA204600F0E8FAAE
:1009900000F0C8FA10BD08B500F0A2FA08BDF8B51D
:1009A00007460D4616461C462A20FFF7EAFF384642
:1009B000FFF7E3FF3046FFF7E0FF2B20FFF7E1FFF3
:1009C00005F1140080B2FFF7D8FF04F1140080B2E3
:1009D000FFF7D3FF2C20FFF7D4FFF8BD2DE9F84334
:1009E00081460F4615469846BDF82060013B013A06
:1009F0009BB292B2FFF7D3FF08E03046FFF7BDFF8E
:100A00000134A4B2AC42F8D30137BFB2474501D29A
:100A10004C46F7E7BDE8F88310B50B46144602468E
:100A2000FFF7BDFF2046FFF7A8FF10BD2DE9F04FEF
:100A300087B0834603910093BDF8403002939DF840
:100A400044301D4601939DF848905F0813F00E0353
:100A500018BF012303EB151305FB03F30493203A9E
:100A6000D3B205932B4600EB550292B20B449BB2D6
:100A7000013B013A9BB292B2FFF791FF5E464FF005
:100A8000000A554649E0059B03EB4303334A02EB5A
:100A9000830313F80A8000241DE0314B059A03EB11
:100AA000021313F80A80F6E7059B03EB43032D4A74
:100AB00002EB031313F80A80EDE70298FFF75DFFDE
:100AC0000135EDB2B5FBF7F307FB135313F0FF034A
:100AD0003FD00134E4B2072C1BD8B9F1000F08D184
:100AE00048FA04F313F0010FE7D00098FFF745FF31
:100AF000E6E748FA04F313F0010F24D10136B6B249
:100B0000A6EB0B03BB42E4D1039B01339BB20393DF
:100B10005E460AF1010A1FFA8AFA049B9A451AD224
:100B2000019B0C2BAFD0019B102BB6D0019B182B37
:100B3000BAD0019B202B0ED10B4B059A03EB8213ED
:100B400013F80A80A7E7009A03993046FFF764FF7D
:100B5000D4E71D46DDE707B0BDE8F08F4040000850
:100B6000B4440008A44A0008745C00082DE9F0476A
:100B700084B00446884615461F46BDF830A09DF84F
:100B800034609DF838900DE0CDF808900196CDF8CE
:100B900000A03B4641462046FFF748FF04EB5604C1
:100BA000A4B201352A78002AEED104B0BDE8F0875E
:100BB0000246012002E002FB00F019464B1EDBB2A8
:100BC0000029F8D1704700002DE9F04F87B080462A
:100BD000049117461D46BDF840300593BDF844B05A
:100BE0009DF848904FEA590A002634461FE004FB5E
:100BF0000A8000230293CDF80490CDF800B0059B45
:100C00002022049980B2FFF711FF0EE0303204FB7E
:100C10000A8000230293CDF80490CDF800B0059B24
:100C2000D2B2049980B2FFF701FF0134E4B2AC42C2
:100C30001AD2291BC9B20139C9B20A20FFF7B8FF7D
:100C4000B7FBF0F00A4AA2FB0032D20802EB8202A4
:100C5000A0EB4202D2B2002ED8D16B1E9C42D5DA54
:100C6000002AC4D00126D1E707B0BDE8F08F00BF4D
:100C7000CDCCCCCC10B582B0044600F0CBF800F05F
:100C800033F96420FFF787FE00F038F96420FFF79E
:100C900082FE00F08FF96420FFF77DFE1120FFF740
:100CA00070FE7820FFF777FE3620FFF76AFE0020FF
:100CB000FFF75FFE3A20FFF764FE0520FFF759FEBD
:100CC000B220FFF75EFE0C20FFF753FE0C20FFF76B
:100CD00050FE0020FFF74DFE3320FFF74AFE332081
:100CE000FFF747FEB720FFF74CFE3520FFF741FE28
:100CF000BB20FFF746FE3220FFF73BFEC220FFF786
:100D000040FE0120FFF735FEC320FFF73AFE152015
:100D1000FFF72FFEC420FFF734FE2020FFF729FE47
:100D2000C620FFF72EFE0F20FFF723FED020FFF78F
:100D300028FEA420FFF71DFEA120FFF71AFEE020E9
:100D4000FFF71FFED020FFF714FE0820FFF711FE6B
:100D50000E20FFF70EFE0920FFF70BFE0920FFF71C
:100D600008FE0520FFF705FE3120FFF702FE3320C5
:100D7000FFF7FFFD4820FFF7FCFD1720FFF7F9FD07
:100D80001420FFF7F6FD1520FFF7F3FD3120FFF7E4
:100D9000F0FD3420FFF7EDFDE120FFF7F2FDD0205C
:100DA000FFF7E7FD0820FFF7E4FD0E20FFF7E1FD68
:100DB0000920FFF7DEFD0920FFF7DBFD1520FFF717
:100DC000D8FD3120FFF7D5FD3320FFF7D2FD4820B5
:100DD000FFF7CFFD1720FFF7CCFD1420FFF7C9FD6B
:100DE0001520FFF7C6FD3120FFF7C3FD3420FFF7C4
:100DF000C0FD2120FFF7C5FD2920FFF7C2FD0094AB
:100E00004FF48C73F02200210846FFF7E7FD02B093
:100E100010BD00002DE9F04186B00023029303933A
:100E20000493059303F1804303F504339A6942F078
:100E300004029A619A6902F004020092009A9A6987
:100E400042F010029A619B6903F010030193019B29
:100E5000214F01220821384600F066FA012211468E
:100E6000384600F061FA1D4D01220821284600F0A5
:100E70005BFA01220221284600F056FA4FF00808DA
:100E8000CDF80880012403940494032605960DEB05
:100E90000801384600F028F902940394049405965A
:100EA0000DEB0801384600F01FF9CDF808800394D7
:100EB000049405960DEB0801284600F015F902236D
:100EC00002930394049405960DEB0801284600F064
:100ED0000BF906B0BDE8F0810008014000100140A8
:100EE00008B500F095F808BD08B5002208210248B1
:100EF00000F01AFA08BD00BF0008014008B5012241
:100F00000821024800F010FA08BD00BF00080140A7
:100F100008B500220121024800F006FA08BD00BF12
:100F20000008014008B501221146024800F0FCF912
:100F300008BD00BF0008014008B500220821024892
:100F400000F0F2F908BD00BF0010014008B5012211
:100F50000821024800F0E8F908BD00BF0010014078
:100F600000B583B08DF80700FFF7E6FF0A230122E2
:100F70000DF10701034800F0F4FDFFF7E7FF03B0B0
:100F80005DF804FB6C04002000B583B0030A8DF803
:100F900004308DF80500FFF7CFFF0A23022201A9D4
:100FA000034800F0DEFDFFF7D1FF03B05DF804FB5E
:100FB0006C04002008B501220221024800F0B4F9B7
:100FC00008BD00BF0010014008B5074A136843F090
:100FD00010031360032000F02FF80F20FFF700FC30
:100FE000FFF7D4FB002008BD00200240034A11682F
:100FF000034B1B780B441360704700BF540500205F
:1010000004000020014B1868704700BF5405002001
:1010100038B50446FFF7F6FF0546B4F1FF3F02D0AE
:10102000044B1B781C44FFF7EDFF401BA042FAD392
:1010300038BD00BF04000020074AD36823F4E063F2
:101040001B041B0C000200F4E060034343F0BF6389
:1010500043F40033D360704700ED00E000B5194B56
:10106000DB68C3F30223C3F1070CBCF1040F28BFF4
:101070004FF0040C03F1040EBEF1060F18D9033B28
:101080004FF0FF3E0EFA0CFC21EA0C0199400EFADB
:1010900003F322EA0303194300280BDB0901C9B259
:1010A00000F1604000F5614080F800135DF804FB3A
:1010B0000023E5E700F00F000901C9B2024B195403
:1010C000F4E700BF00ED00E014ED00E0002807DBCE
:1010D00000F01F02400901239340024A42F82030E9
:1010E000704700BF00E100E070B582B00024A44664
:1010F000B0E0874DAA4210D007D9864DAA420CD045
:1011000005F58035AA4208D013E0A5F58015AA425E
:1011100003D005F57025AA4207D18A68002A62D05B
:10112000012A5BD04361082403E0A5F58015AA429B
:10113000F3D0BEF1FF0F58D80646BEF1FF0F56D8C8
:101140004FEA8C0233680F25954023EA050304FA21
:1011500002F2134333604B6813F0805F78D06E4B1C
:101160009A6942F001029A619B6903F001030193BD
:10117000019B4FEA9C02951C684B53F825600CF0CC
:1011800003039D000F23AB4026EA0306644B9842FD
:1011900033D003F58063984200F0988003F58063B4
:1011A000984200F0958003F58063984200F09280A9
:1011B00003F58063984200F08F8003F580639842C6
:1011C00019D006231AE0CC68B3E7CC680434B0E742
:1011D000CC680834ADE7CC680C34AAE70361082476
:1011E000A7E70024A5E70424A3E7061DA5E7ACF1C3
:1011F00008029200A6E7052300E00023AB4033433A
:101200000232464D45F822304B6813F4801F65D0FA
:10121000444A936843EA0E0393604B6813F4001F3B
:1012200062D0404AD36843EA0E03D3604B6813F49C
:10123000003F5FD03B4A536843EA0E0353604B685C
:1012400013F4803F5CD0374A136843EA0E031360FF
:101250000CF1010C0A6832FA0CF357D0012303FA9F
:101260000CF302EA030E33EA0202F1D14A68122AB1
:101270003FF63FAF122A3FF65CAF01A555F822F0CA
:101280001B110008C7110008D1110008E311000864
:10129000331100083311000833110008331100081E
:1012A000331100083311000833110008331100080E
:1012B00033110008331100083311000833110008FE
:1012C00033110008CB110008D7110008012395E75E
:1012D000022393E7032391E704238FE7114A9368DE
:1012E00023EA0E03936098E70E4AD36823EA0E03BD
:1012F000D3609BE70B4A536823EA0E0353609EE7D3
:10130000084A136823EA0E031360A1E702B070BD18
:1013100000002210000031100010024000000140C7
:1013200000080140000401400AB10161704709044E
:101330000161704708B5054B5B69034200D108BDE8
:10134000024B5861FFF7E4F8F9E700BF00040140E1
:1013500082B0084B1B68084AA2FB03235B0A00FB10
:1013600003F3019300BF019B5A1E0192002BF9D198
:1013700002B0704700000020D34D6210002800F03A
:10138000F18170B582B00446036813F0010F2CD0D0
:10139000994B5B6803F00C03042B1DD0964B5B68E4
:1013A00003F00C03082B12D06368B3F5803F41D0E3
:1013B000002B55D103F1804303F504331A6822F45E
:1013C00080321A601A6822F480221A6037E08A4B51
:1013D0005B6813F4803FE7D0874B1B6813F4003F32
:1013E00003D06368002B00F0BF81236813F0020F65
:1013F00075D0814B5B6813F00C0F5FD07E4B5B6840
:1014000003F00C03082B54D02369002B00F08A80D2
:101410007A4B01221A60FFF7F5FD0546764B1B68F3
:1014200013F0020F75D1FFF7EDFD401B0228F5D92F
:1014300003209EE1704A136843F4803313606368AD
:1014400043B3FFF7DFFD05466B4B1B6813F4003F0A
:10145000CBD1FFF7D7FD401B6428F5D9032088E1E5
:10146000B3F5A02F09D0644B1A6822F480321A60B9
:101470001A6822F480221A60E1E703F18043A3F5A1
:101480003C331A6842F480221A601A6842F48032AF
:101490001A60D4E7FFF7B6FD0546574B1B6813F4F7
:1014A000003FA2D0FFF7AEFD401B6428F5D9032012
:1014B0005FE1514B5B6813F4803FA5D14E4B1B6835
:1014C00013F0020F03D02369012B40F04F814A4AE9
:1014D000136823F0F803616943EAC10313602368CA
:1014E00013F0080F33D0A369002B5CD0434B0122CB
:1014F000C3F88024FFF786FD05463F4B5B6A13F077
:10150000020F21D1FFF77EFD401B0228F5D90320F1
:101510002FE1394A136823F0F803616943EAC103F4
:101520001360DCE7354B00221A60FFF76BFD0546C0
:10153000314B1B6813F0020FD1D0FFF763FD401B46
:101540000228F5D9032014E10120FFF701FF2368E9
:1015500013F0040F00F09680274BDB6913F0805FD7
:1015600034D1254BDA6942F08052DA61DB6903F04D
:1015700080530193019B0125214B1B6813F4807F4D
:1015800026D0E368012B3DD0002B53D103F18043DB
:1015900003F504331A6A22F001021A621A6A22F071
:1015A00004021A6233E0154B0022C3F88024FFF7CF
:1015B00029FD0546104B5B6A13F0020FC7D0FFF7F9
:1015C00021FD401B0228F5D90320D2E00025D3E7F6
:1015D0000B4A136843F480731360FFF713FD06464C
:1015E000074B1B6813F4807FCBD1FFF70BFD801BEB
:1015F0006428F5D90320BCE00010024000004242FC
:10160000007000405F4A136A43F001031362E3680D
:1016100033B3FFF7F7FC06465A4B1B6A13F0020F71
:101620002FD1FFF7EFFC801B41F288339842F3D9AA
:1016300003209EE0052B09D0524B1A6A22F00102CA
:101640001A621A6A22F004021A62E0E74D4B1A6A23
:1016500042F004021A621A6A42F001021A62D6E7E4
:10166000FFF7D0FC0646474B1B6A13F0020F08D069
:10167000FFF7C8FC801B41F288339842F3D903205E
:1016800077E0E5B9E369002B72D03E4A526802F078
:101690000C02082A56D0022B17D03B4B00221A66A8
:1016A000FFF7B0FC0446374B1B6813F0007F47D0B0
:1016B000FFF7A8FC001B0228F5D9032059E0314AA6
:1016C000D36923F08053D361DCE72F4B00221A66E5
:1016D000FFF798FC05462B4B1B6813F0007F06D0E4
:1016E000FFF790FC401B0228F5D9032041E0236A54
:1016F000B3F5803F1AD023494B6823F47413226A50
:10170000606A024313434B601F4B01221A66FFF7C6
:1017100079FC04461B4B1B6813F0007F0ED1FFF7CA
:1017200071FC001B0228F5D9032022E0154A5368FA
:1017300023F40033A1680B435360DCE7002018E07A
:10174000002016E0012B16D00E4B5B6803F48031AD
:10175000226A914211D103F47013626A93420ED14E
:10176000002006E001207047012002E0012000E097
:10177000002002B070BD0120FBE70120F9E7012045
:10178000F7E700BF00100240000042420F4B5B68C9
:1017900003F00C02082A01D00D487047C3F38342BE
:1017A0000C49885C13F4803F0BD0084B5B68C3F393
:1017B0004043094AD35C064A02FB00F0B0FBF3F059
:1017C0007047064B03FB00F0704700BF001002405B
:1017D00000127A00347400084474000800093D00C7
:1017E000002800F0A08070B50D460446524B1B68DF
:1017F00003F007038B420BD24F4A136823F0070311
:101800000B431360136803F007038B4240F08D8095
:10181000236813F0020F17D013F0040F04D0474AC7
:10182000536843F4E0635360236813F0080F04D057
:10183000424A536843F460535360404A536823F06C
:10184000F003A1680B435360236813F0010F31D0FC
:101850006368012B20D0022B25D0384A126812F081
:10186000020F64D035494A6822F0030213434B60EB
:10187000FFF7C8FB0646314B5B6803F00C03626858
:10188000B3EB820F16D0FFF7BDFB801B41F288330C
:101890009842F0D9032045E0284A126812F4003F2C
:1018A000E0D101203EE0254A126812F0007FD9D134
:1018B000012037E0204B1B6803F00703AB420AD935
:1018C0001D4A136823F007032B431360136803F0CA
:1018D0000703AB422DD1236813F0040F06D0174A3B
:1018E000536823F4E063E1680B435360236813F00B
:1018F000080F07D0114A536823F46053216943EA63
:10190000C1035360FFF742FF0C4B5B68C3F3031343
:101910000B4AD35CD8400B4B18600B4B1868FEF792
:101920005FFF002070BD012070470120FAE7012011
:10193000F8E70120F6E700BF002002400010024057
:10194000284000080000002008000020014B186813
:10195000704700BF0000002008B5FFF7F7FF044BF9
:101960005B68C3F30223034AD35CD84008BD00BFC1
:1019700000100240384000080F2303600B4B5A68E8
:1019800002F0030242605A6802F0F00282605A6874
:1019900002F4E062C2605B68DB0803F4E0630361A9
:1019A000034B1B6803F007030B60704700100240F5
:1019B000002002402DE9F04782B0054688461746D0
:1019C0001E46FFF71FFB0A9B1B1A03EB0609FFF7D6
:1019D00019FB82462B4B1B68C3F3CB3309FB03F384
:1019E00001932B689C6838EA04030CBF4FF0010C8C
:1019F0004FF0000CBC4540D0B6F1FF3FF1D0FFF7EF
:101A000001FBA0EB0A0048450AD2B9F1000F07D04C
:101A1000019A02B14A46019B013B01939146E0E7DE
:101A20002A68536823F0E00353606B68B3F5827F44
:101A30000BD0AB6AB3F5005F14D0012385F85130A9
:101A4000002385F85030032018E0AB68B3F5004F51
:101A500002D0B3F5806FECD12A68136823F04003FD
:101A60001360E6E72A68136823F4005313602A68BA
:101A7000136843F400531360DFE7002002B0BDE8B1
:101A8000F08700BF0000002010B582B004460B466E
:101A9000009200228021FFF78DFF08B902B010BD2F
:101AA000636D43F0200363650320F7E7002856D0F9
:101AB00010B50446436A33B94368B3F5827F05D055
:101AC0000023C36102E00023036143610023A3629A
:101AD00094F85130002B3CD0022384F85130226816
:101AE000136823F040031360636803F48273A268F1
:101AF00002F404421343E26802F4006213432269D1
:101B000002F002021343626902F001021343A26968
:101B100002F400721343E26902F038021343226AAE
:101B200002F080021343A26A02F4005221681343B8
:101B30000B60638B226803F0040353602268D3694F
:101B400023F40063D36100206065012384F85130E1
:101B500010BD84F850302046FEF7E6FDBCE70120BA
:101B600070472DE9F04383B01D4690F85030012BAB
:101B700000F0D180044688469146012380F8503019
:101B8000FFF740FA074694F85160F6B2012E40F094
:101B9000BA80B8F1000F00F0B780B9F1000F00F083
:101BA000B380032384F8513000236365C4F8308088
:101BB000A4F83490A4F83690A363A387E387636402
:101BC0002364A368B3F5004F1ED023681A6812F08F
:101BD000400F03D11A6842F040021A60E368B3F57F
:101BE000006F1CD0636813B1B9F1010F55D1226B9E
:101BF000236812781A73236B01332363E38E9BB23D
:101C0000013B9BB2E38648E02268136823F040035F
:101C100013602268136843F480431360D5E7636858
:101C200013B1B9F1010F15D1226B23681288DA6064
:101C3000236B02332363E38E9BB2013B9BB2E386AB
:101C400008E0FFF7DFF9C01BA84202D3B5F1FF3F60
:101C500015D1A5B1E38E9BB2002B3CD023689A68C6
:101C600012F0020FEDD0226B1288DA60236B023380
:101C70002363E38E9BB2013B9BB2E386EAE7012339
:101C800084F8513003263FE0FFF7BCF9C01BA8429F
:101C900002D3B5F1FF3F19D1C5B1E38E9BB2D3B1E9
:101CA00023689A6812F0020FEED0226B12781A7332
:101CB000236B01332363B4F836C01FFA8CFC0CF19C
:101CC000FF3C1FFA8CFCA4F836C0E6E7012384F839
:101CD0005130032618E03A4629462046FFF7D4FE45
:101CE00008B120236365A36833B901932368DA68D8
:101CF00001929B680193019B636D2BB9012384F8CA
:101D00005130002600E00226002384F8503030468F
:101D100003B0BDE8F0830226F9E7000090F83D30FB
:101D2000DBB2012B2AD1022380F83D300368154A2B
:101D3000934218D002F50062934214D0B3F1804F61
:101D400011D0A2F5983293420DD002F580629342F1
:101D500009D002F58062934205D01A6842F0010270
:101D60001A60002070479A6802F00702062A07D01E
:101D70001A6842F001021A60002070470120704783
:101D800000207047002C014090F83D30DBB2012B61
:101D90002FD1022380F83D300268D36843F001035D
:101DA000D3600368154A934218D002F5006293424B
:101DB00014D0B3F1804F11D0A2F5983293420DD0D8
:101DC00002F58062934209D002F58062934205D009
:101DD0001A6842F001021A60002070479A6802F007
:101DE0000702062A07D01A6842F001021A60002092
:101DF0007047012070470020704700BF002C014051
:101E0000704770477047704710B5044603681A69F9
:101E100012F0020F11D0DA6812F0020F0DD06FF03D
:101E200002021A610123037703689B6913F0030F11
:101E300070D0FFF7E6FF0023237723681A6912F0BA
:101E4000040F12D0DA6812F0040F0ED06FF0040203
:101E50001A610223237723689B6913F4407F5FD0C4
:101E60002046FFF7CEFF0023237723681A6912F07C
:101E7000080F12D0DA6812F0080F0ED06FF00802C7
:101E80001A61042323772368DB6913F0030F4ED014
:101E90002046FFF7B6FF0023237723681A6912F064
:101EA000100F12D0DA6812F0100F0ED06FF010027F
:101EB0001A61082323772368DB6913F4407F3DD040
:101EC0002046FFF79EFF0023237723681A6912F04C
:101ED000010F03D0DA6812F0010F36D123681A69B6
:101EE00012F0800F03D0DA6812F0800F34D123682B
:101EF0001A6912F0400F03D0DA6812F0400F32D1A5
:101F000023681A6912F0200F03D0DA6812F0200F4C
:101F100030D110BDFFF774FF2046FFF773FF8AE74B
:101F20002046FFF76DFF2046FFF76CFF9BE720463A
:101F3000FFF766FF2046FFF765FFACE72046FFF797
:101F40005FFF2046FFF75EFFBDE76FF001021A61F9
:101F50002046FEF775FBC1E76FF080021A6120464C
:101F600000F0C7F8C3E76FF040021A612046FFF7A0
:101F70004AFFC5E76FF020021A61204600F0B8F86A
:101F8000C7E700000368244A904212D002F50062BD
:101F900090420ED0B0F1804F0BD0A2F59832904213
:101FA00007D002F58062904203D002F58062904231
:101FB00003D123F070034A681343174A904212D0AA
:101FC00002F5006290420ED0B0F1804F0BD0A2F526
:101FD0009832904207D002F58062904203D002F519
:101FE0008062904203D123F44073CA68134323F004
:101FF00080034A69134303608B68C3620B68836282
:10200000054B984203D003F50063984201D10B6958
:102010000363012343617047002C014040B310B5B6
:10202000044690F83D30F3B1022384F83D30214658
:1020300051F8040BFFF7A6FF012384F8463084F81B
:102040003E3084F83F3084F8403084F8413084F8E2
:10205000423084F8433084F8443084F8453084F8C2
:102060003D30002010BD80F83C30FEF747FCDBE738
:102070000120704790F83C30012B34D010B401237C
:1020800080F83C30022380F83D3003685A689C6831
:1020900022F0700C0A6842EA0C025A600368134A84
:1020A000934212D002F5006293420ED0B3F1804FFA
:1020B0000BD0A2F59832934207D002F5806293428A
:1020C00003D002F58062934204D124F080044A6870
:1020D00014439C60012380F83D30002380F83C309D
:1020E000184610BC70470220704700BF002C01400A
:1020F00070477047EFF3058393B9EFF3108393B9FB
:102100000C4B1868022804D080B90A4B01221A60CF
:102110007047EFF31183002BF6D06FF00500704786
:102120006FF0050070476FF0050070474FF0FF300B
:10213000704700BFB407002008B5EFF30583B3B9BB
:10214000EFF31083B3B90E4B1B68022B08D0012BA1
:1021500013D10B4B02221A6001F0AAF8002008BD2F
:10216000EFF31182002AF2D06FF00500F7E76FF06D
:102170000500F4E76FF00500F1E74FF0FF30EEE700
:10218000B4070020F0B587B000240494EFF3058471
:10219000002C43D1EFF31083002B3FD1334B1B684E
:1021A000022B16D0002839D000238DF8173062B3E7
:1021B000156895B1936903B918235C1E372C51D863
:1021C000546814F0010F4FD156694EB14FEA960C86
:1021D00008E0EFF311830BBBE4E70DF11705E9E726
:1021E0004FF0800C94682CB1D7685B2F02D9176927
:1021F00007B1B6B914B14FF0FF340CE0D46894B90C
:1022000014699CB14FF0FF3405E0002418234FF00F
:10221000800C0DF11705012C0AD0ACB1049807B061
:10222000F0BD0124F7E74FF0FF34F4E70024F2E7B4
:10223000146992680292019400930B466246294603
:1022400000F0C8FF0490E9E704AA019200930B464E
:102250001FFA8CF2294600F0F7FF0128DED0002398
:102260000493DBE70020DAE70020D8E7B40700207A
:10227000034B0360034B0B6080231360704700BF68
:102280005807002058050020034B0360034B0B60E8
:102290004FF4807313607047B80B0020B80700201C
:1022A00000F1080343604FF0FF328260C3600361B6
:1022B00000230360704700230361704743684B604D
:1022C0009A688A605160996008610368013303600D
:1022D000704730B40D68B5F1FF3F11D000F108032D
:1022E0001C465B681A68AA42FAD963684B60996019
:1022F0008C606160086103680133036030BC704723
:102300000469F2E70369416882688A604168516044
:102310005A68824206D0002202611A68013A1A60A5
:102320001868704782685A60F5E7000082B00023A1
:1023300001930D4B1B68B3F1FF3F08D04FF05003E2
:1023400083F31188BFF36F8FBFF34F8FFEE74FF01A
:10235000500383F31188BFF36F8FBFF34F8F019B3F
:10236000002BFCD002B070470C000020064800682B
:10237000006880F3088862B661B6BFF34F8FBFF381
:102380006F8F00DF00BF000008ED00E04FF08073AA
:1023900040F8043C21F0010140F8081C034B40F8D0
:1023A0000C3C40F8202C4038704700BF2D2300081B
:1023B000074B19680868B0E8F00F80F30988BFF38D
:1023C0006F8F4FF0000080F311884EF00D0E7047B4
:1023D000741800204FF0500383F31188BFF36F8F00
:1023E000BFF34F8F0B4A136801331360012B00D0EA
:1023F00070474FF0E023D3F8043D13F0FF0FF7D000
:102400004FF0500383F31188BFF36F8FBFF34F8FEB
:10241000FEE700BF0C000020094B1B6843B94FF0DA
:10242000500383F31188BFF36F8FBFF34F8FFEE725
:10243000013B034A13600BB983F31188704700BF57
:102440000C00002000000000000000000000000060
:10245000EFF30980BFF36F8F0D4B1A6820E9F00F7F
:1024600010602DE908404FF0500080F3118801F012
:10247000A9F84FF0000080F31188BDE80840196802
:102480000868B0E8F00F80F30988BFF36F8F7047DA
:102490007418002008B54FF0500383F31188BFF380
:1024A0006F8FBFF34F8F00F05FFF28B14FF0E02335
:1024B0004FF08052C3F8042D002383F3118808BD28
:1024C0004FF0E022002313619361054B1B6805491F
:1024D000A1FB03139B09013B536107231361704761
:1024E00000000020D34D621010B582B02A4B1A783C
:1024F000D2B20192FF221A701B78DBB28DF8033042
:102500009DF8033003F05003244A1370244B072234
:102510001A6009E0224A1368013B13609DF80330FA
:102520005B00DBB28DF803309DF8033013F0800FB1
:10253000F0D11B4B1B68032B08D04FF0500383F3E3
:102540001188BFF36F8FBFF34F8FFEE71B02144A52
:10255000136003F4E0631360019BDBB20E4A137057
:102560004FF0E023D3F8202D42F47002C3F8202D61
:10257000D3F8202D42F07042C3F8202DFFF7A0FFC2
:102580000024084B1C60FFF7F1FE01F01BF8FFF779
:10259000CDFE204602B010BD00E400E0140C002087
:1025A000180C00200C000020EFF305830F2B0FD92F
:1025B000114A9B5CDBB2114A12789A4208D94FF05B
:1025C000500383F31188BFF36F8FBFF34F8FFEE784
:1025D0004FF0E023D3F80C3D03F4E063084A12689F
:1025E000934208D94FF0500383F31188BFF36F8FE4
:1025F000BFF34F8FFEE77047F0E300E0140C0020BC
:10260000180C0020124A12F0070F1ED0D11D21F025
:102610000701C1F5406313440A460E4802600021D9
:1026200041601344083B23F007030B4803605960E3
:102630001960991A51601360084B1960084B1960B2
:10264000084B4FF000421A6070474FF44063E4E7D4
:10265000200C00202C1800201C0C00202818002022
:102660002418002020180020154B1A461B688342AE
:10267000FBD3516802EB010C844509D0416800EBA3
:10268000010C634509D00360904218D01060704778
:102690004068014451601046F0E710B4094C2468CA
:1026A000A3420AD05B681944416013681B68036049
:1026B000904200D0106010BC70470460F8E770478B
:1026C0002C1800201C0C002070B5054600F03EFEC2
:1026D000344B1B68A3B1344B1B681D424AD135B142
:1026E000083515F0070F02D025F007050835002D35
:1026F00042D02E4B1B68AB424DD32D4A146804E0E8
:10270000FFF780FFE7E722461C466368AB4202D230
:102710002368002BF7D1234B1B68A3423DD01668DA
:1027200008362368136063685B1B102B10D960198F
:1027300010F0070F08D04FF0500383F31188BFF358
:102740006F8FBFF34F8FFEE743606560FFF78CFF2D
:10275000626816490B689B1A0B60164909688B4220
:1027600001D214490B60104B1B68134363600023B4
:10277000236002E0002600E0002600F081FE16F053
:10278000070F0CD04FF0500383F31188BFF36F8F06
:10279000BFF34F8FFEE70026EFE70026EDE7304658
:1027A00070BD00BF1C0C0020201800202418002041
:1027B0002C1800202818002080B338B50446A0F15A
:1027C000080550F8043C164A1268134208D14FF02D
:1027D000500383F31188BFF36F8FBFF34F8FFEE772
:1027E00050F8081C41B14FF0500383F31188BFF338
:1027F0006F8FBFF34F8FFEE723EA020340F8043CDC
:1028000000F0A4FD54F8041C064A13680B4413603E
:102810002846FFF729FF00F033FE38BD704700BFA0
:10282000201800202418002010B50446FFF7D2FD20
:10283000A26BE36B9A4204D00024FFF7EDFD204623
:1028400010BD0124F9E710B50446FFF7C3FDA36BE3
:1028500023B90124FFF7E0FD204610BD0024F9E76D
:1028600070B504461546866B026C5AB903681BB1F5
:1028700000200136A66370BD406801F02DF80023EA
:102880006360F6E76DB98068FDF7D2FC226CA3683F
:102890001344A3606268934219D32368A360284657
:1028A000E7E7C068FDF7C4FC226C5142E3689B1A5D
:1028B000E3602268934202D263680B44E360022D16
:1028C00001D00020D5E726B1013E0020D1E72846FF
:1028D000CFE70020CDE708B50346026C62B1084699
:1028E000D9681144D960D3F804C0614501D319688F
:1028F000D960D968FDF79CFC08BD38B50546FFF7DF
:1029000069FD95F8454064B201E0013C64B2002CD9
:102910000ADD6B6A43B105F1240000F033FF0028A3
:10292000F3D000F0C3FFF0E7FF2385F84530FFF751
:1029300073FDFFF74FFD95F8444064B201E0013CA0
:1029400064B2002C0ADD2B6943B105F1100000F0E0
:1029500019FF0028F3D000F0A9FFF0E7FF2385F866
:102960004430FFF759FD38BD38B5E0B10D46044697
:10297000FFF730FD2368E26B216C01FB02306060E1
:102980000020A063A360013A02FB0133E360FF2350
:1029900084F8443084F84530FDB9236963B9FFF702
:1029A0003BFD012038BD4FF0500383F31188BFF386
:1029B0006F8FBFF34F8FFEE704F1100000F0E2FECF
:1029C0000028ECD04FF0E0234FF08052C3F8042DE4
:1029D000BFF34F8FBFF36F8FE1E704F11000FFF7F4
:1029E0005FFC04F12400FFF75BFCD8E738B51D4617
:1029F000049C0B4649B92460E0632364012120460E
:102A0000FFF7B2FF84F84C5038BD2260F4E740B9BC
:102A10004FF0500383F31188BFF36F8FBFF34F8FD5
:102A2000FEE710B584B01C46844653B192B189B913
:102A30004FF0500383F31188BFF36F8FBFF34F8FB5
:102A4000FEE74FF0500383F31188BFF36F8FBFF39E
:102A50004F8FFEE76AB150230393039B502B13D093
:102A60004FF0500383F31188BFF36F8FBFF34F8F85
:102A7000FEE70029EFD04FF0500383F31188BFF336
:102A80006F8FBFF34F8FFEE7012384F84630009429
:102A90009DF818306046FFF7A9FF204604B010BD2E
:102AA000F0B585B0019288B10F461D460446B1B11C
:102AB000022D20D1E36B012B1DD04FF0500383F387
:102AC0001188BFF36F8FBFF34F8FFEE74FF05003B6
:102AD00083F31188BFF36F8FBFF34F8FFEE7036C53
:102AE000002BE5D04FF0500383F31188BFF36F8FB5
:102AF000BFF34F8FFEE700F0DFFE064658B9019B9B
:102B0000002B48D04FF0500383F31188BFF36F8F31
:102B1000BFF34F8FFEE700263DE02A4639462046A8
:102B2000FFF79EFE636A7BB948B14FF0E0234FF098
:102B30008052C3F8042DBFF34F8FBFF36F8FFFF7A1
:102B40006BFC012005B0F0BD04F1240000F01AFE7A
:102B50000028F4D04FF0E0234FF08052C3F8042D4A
:102B6000BFF34F8FBFF36F8FE9E7FFF755FC0020EE
:102B7000E8E702A800F04CFE012619E0002384F8E3
:102B8000443021E0002384F8453023E02046FFF75D
:102B9000B4FE00F075FCFFF71DFCA26BE36B9A42DC
:102BA000BBD3022DB9D0019B002BDED0002EE0D08C
:102BB000FFF732FC00F0CAFBFFF70CFC94F844204E
:102BC00052B2B2F1FF3FD9D094F8452052B2B2F1DF
:102BD000FF3FD7D0FFF720FC01A902A800F024FE98
:102BE000D8B92046FFF720FE0028CFD0019904F184
:102BF000100000F093FD2046FFF77FFE00F040FC40
:102C00000028C8D14FF0E0234FF08052C3F8042DC4
:102C1000BFF34F8FBFF36F8FBDE72046FFF76DFE09
:102C200000F02EFC00208DE72DE9F84390B10F460F
:102C300016461C460546B1B1022C20D1EB6B012B88
:102C40001DD04FF0500383F31188BFF36F8FBFF394
:102C50004F8FFEE74FF0500383F31188BFF36F8F60
:102C6000BFF34F8FFEE7036C002BE5D04FF050030E
:102C700083F31188BFF36F8FBFF34F8FFEE7FFF72A
:102C800093FCEFF311894FF0500383F31188BFF3E6
:102C90006F8FBFF34F8FAA6BEB6B9A4206D3022C58
:102CA00004D0002089F31188BDE8F88395F84580A9
:102CB0004FFA88F8224639462846FFF7D1FDB8F189
:102CC000FF3F06D008F101035BB285F845300120D3
:102CD000E8E76B6A0BB90120E4E705F1240000F096
:102CE00051FD18B126B101203060DBE70120D9E7A2
:102CF0000120D7E7F0B585B0019290B10F460446A8
:102D0000C1B100F0D9FD064600BB019B002B5ED08F
:102D10004FF0500383F31188BFF36F8FBFF34F8FD2
:102D2000FEE74FF0500383F31188BFF36F8FBFF3BB
:102D30004F8FFEE7036C002BE3D04FF0500383F37B
:102D40001188BFF36F8FBFF34F8FFEE700263EE081
:102D500039462046FFF7BFFD013DA563236923B92E
:102D6000FFF75AFB012005B0F0BD04F1100000F0A0
:102D700009FD0028F4D04FF0E0234FF08052C3F853
:102D8000042DBFF34F8FBFF36F8FE9E7FFF744FBCD
:102D90000020E8E702A800F03BFD012621E0002327
:102DA00084F8443029E0002384F845302BE02046A5
:102DB000FFF7A3FD00F064FB09E02046FFF79DFD4F
:102DC00000F05EFB2046FFF73EFD00283FD1FFF7F5
:102DD00001FBA56B002DBBD1019B002BD6D0002E93
:102DE000D8D0FFF719FB00F0B1FAFFF7F3FA94F827
:102DF00044305BB2B3F1FF3FD1D094F845305BB2C1
:102E0000B3F1FF3FCFD0FFF707FB01A902A800F005
:102E10000BFD0028D1D12046FFF715FD0028C6D0B4
:102E2000019904F1240000F079FC2046FFF765FDCC
:102E300000F026FB0028CAD14FF0E0234FF080526B
:102E4000C3F8042DBFF34F8FBFF36F8FBFE7002090
:102E500089E700000023072B0CD8074A52F83320DB
:102E60000AB10133F7E7044A42F8331002EBC30317
:102E700058607047704700BF3418002070B5044692
:102E80000D461646FFF7A6FA94F844305BB2B3F14C
:102E9000FF3F0DD094F845305BB2B3F1FF3F0BD04C
:102EA000FFF7BAFAA36B5BB12046FFF726FD70BDB2
:102EB000002384F84430EDE7002384F84530EFE741
:102EC0003246294604F1240000F040FCECE7000003
:102ED000084B1B681B6823B9074B4FF0FF321A6081
:102EE0007047044B1B68DB68DB685A68024B1A604A
:102EF000704700BF78180020241D00202DE9F047FE
:102F000080460D4617469946089EDDF824A00A9C87
:102F10009200A521206B00F063FF236B07F1804234
:102F2000013A03EB820727F007074FF0000CBCF1D2
:102F30000F0F0BD815F80C2004EB0C0383F834208A
:102F400015F80C3013B10CF1010CF0E7002384F8F4
:102F50004330372E00D93726E662E6640025256522
:102F6000201DFFF7A8F904F11800FFF7A4F9246168
:102F7000C6F13806A6616462656584F858504A4611
:102F800041463846FFF702FA2060BAF1000F01D03F
:102F9000CAF80040BDE8F08738B5002407E004EB2C
:102FA000840293000E481844FFF77AF90134372C55
:102FB000F5D90C4D2846FFF773F90B4C2046FFF767
:102FC0006FF90A48FFF76CF90948FFF769F90948F2
:102FD000FFF766F9084B1D60084B1C6038BD00BF49
:102FE00080180020F81C00200C1D00202C1D002043
:102FF000581D0020441D0020781800207C18002057
:1030000010B50446FFF7E6F9224A1368013313604E
:10301000214B1B685BB1214B1B686BB91E4B1B68B6
:10302000DA6AE36A9A4207D81B4B1C6004E01A4B29
:103030001C601368012B29D0194A136801331360EF
:103040006364E06A174B1B68984201D9154B1860FE
:1030500000EB8000211D144B03EB8000FFF72EF9DD
:10306000FFF7DAF90D4B1B687BB10B4B1B68DA6A73
:10307000E36A9A4209D24FF0E0234FF08052C3F83E
:10308000042DBFF34F8FBFF36F8F10BDFFF784FF89
:10309000D2E700BFE01C002074180020401D002073
:1030A000F01C0020F41C00208018002010B50446FD
:1030B00090F8593063B1012B11D0022B0ED04FF094
:1030C000500383F31188BFF36F8FBFF34F8FFEE779
:1030D000006BFFF771FB2046FFF76EFB10BDFFF79B
:1030E0006BFBFBE70F4B1B68D3B110B5FFF772F911
:1030F0000D4BDB68DC68201DFFF704F90B4A1368F1
:10310000013B1360074A1368013B1360FFF784F922
:103110002046FFF7CBFF034B1B68002BE6D110BD09
:10312000704700BFE41C0020581D0020E01C002058
:1031300008B5FFF7D7FF074B1B68012BF9D94FF0F4
:10314000E0234FF08052C3F8042DBFF34F8FBFF33D
:103150006F8FEEE78018002070B504460D46174BC0
:103160001E68174B18680430FFF7CCF8B4F1FF3F26
:103170000DD03444124B1B685C60A64210D9114B31
:1031800018680F4B19680431FFF7A3F870BD002DC4
:10319000EFD00B4B196804310B48FFF78FF8F5E7B8
:1031A0000A4B1868064B19680431FFF792F8084B70
:1031B0001B68A342EAD9064B1C60E7E76C1D0020A0
:1031C000741800207C180020441D0020781800206E
:1031D000241D002030B587B00B9C7CB10C9DB5B18F
:1031E0005C250495049D5C2D1AD04FF0500383F3A9
:1031F0001188BFF36F8FBFF34F8FFEE74FF050037F
:1032000083F31188BFF36F8FBFF34F8FFEE74FF04B
:10321000500383F31188BFF36F8FBFF34F8FFEE727
:103220000C9D2C63022485F85940002403940295D8
:1032300005AC01940A9C0094FFF760FE0C98FFF720
:10324000DFFE059807B030BD2DE9F04385B0074695
:10325000884614461E469000FFF736FA00B38146B2
:103260005C20FFF731FA0546B0B1C0F83090E5B107
:10327000002385F85930039302950D9B01930C9B15
:1032800000933346224641463846FFF737FE28462C
:10329000FFF7B6FE012005E04846FFF78DFAE6E7A6
:1032A0004FF0FF3005B0BDE8F0834FF0FF30F9E795
:1032B00010B588B000240594069407AA06A905A8AD
:1032C000FEF7D6FF059B0293069B019300942346CD
:1032D000079A18491848FFF77DFF184B186040B14E
:1032E00000F0AEFB012806D0B0F1FF3F18D008B0C7
:1032F00010BD0020F6E74FF0500383F31188BFF3B1
:103300006F8FBFF34F8F0E4B4FF0FF321A600D4B94
:1033100001221A600C4B00221A60FFF7E5F8E6E77D
:103320004FF0500383F31188BFF36F8FBFF34F8FBC
:10333000FEE700BF4874000831310008201D00205E
:10334000241D0020401D00206C1D0020024A13682F
:1033500001331360704700BFEC1C0020014B18685C
:10336000704700BF6C1D0020F8B53A4B1B68002B5E
:1033700064D1394B1D6801351D60C5B9374B1B68D9
:103380001B6843B14FF0500383F31188BFF36F8F75
:10339000BFF34F8FFEE7314A1168314B1868106058
:1033A0001960304A136801331360FFF791FD2E4B0B
:1033B0001B68AB4238D900272C4B1B68DB6A03EB38
:1033C00083039A002A4B9B58012B3CD901273AE0F2
:1033D0000127224B1B681B6843B3204B1B68DB682B
:1033E000DC6863689D4226D3261D3046FEF78AFFBF
:1033F000A36A1BB104F11800FEF784FFE36A1D4ABB
:103400001268934201D91B4A136003EB83039A00AD
:10341000314617481044FEF751FFE26A134B1B6810
:10342000DB6A9A42D4D2D4E70027D2E70E4B4FF0A2
:10343000FF321A60C0E70C4A1360BDE70E4A1368FA
:103440000133136000270D4B1B6803B10127384679
:10345000F8BD00BFEC1C00206C1D00207818002077
:103460007C180020281D0020241D00207418002036
:1034700080180020F41C0020E81C0020701D002093
:1034800038B5354B1B6843B94FF0500383F31188AF
:10349000BFF36F8FBFF34F8FFEE7FEF79BFF2E4BFF
:1034A0001A68013A1A601B68002B4FD12B4B1B681E
:1034B0000BB900244BE00024294B1B681BB3284B9D
:1034C000DB68DC6804F11800FEF71CFF251D2846A8
:1034D000FEF718FFE06A234B1B68984201D9214B85
:1034E000186000EB800029461F4B03EB8000FEF7BD
:1034F000E5FEE26A1D4B1B68DB6A9A42DCD31C4B7B
:1035000001221A60D8E70CB1FFF7E2FC194B1C68E6
:1035100084B9174B1C68D4B14FF0E0234FF08052B0
:10352000C3F8042DBFF34F8FBFF36F8F01240EE05C
:10353000013C07D0FFF718FF0028F9D00C4B0122FF
:103540001A60F5E70B4B00221A60E2E70024FEF751
:1035500063FF204638BD00BFEC1C0020E01C0020AB
:103560002C1D0020F41C002080180020741800205E
:10357000701D0020E81C002010B5A8B10446104BB7
:103580001B6843B14FF0500383F31188BFF36F8F73
:10359000BFF34F8FFEE7FFF7D9FE00212046FFF76C
:1035A000DBFDFFF76DFF48B94FF0E0234FF080528D
:1035B000C3F8042DBFF34F8FBFF36F8F10BD00BF53
:1035C000EC1C00201F4B1B681BB11F4B01221A6013
:1035D00070471D4B00221A601C4B1B6803EB8301D4
:1035E0008A001B498A585AB90BB1013BF6E74FF0E4
:1035F000500383F31188BFF36F8FBFF34F8FFEE744
:1036000003EB830082000A4450684068506003EB7B
:10361000830C4FEA8C020832114488420BD003EB32
:10362000830291000A4A0A445268D168094A11602B
:10363000064A13607047406862469100044A0A4493
:103640005060ECE7EC1C0020701D0020F41C0020F2
:10365000801800207418002038B50446FEF7BAFE22
:10366000E4B1251D2846FEF74DFEA36A1BB104F107
:103670001800FEF747FE29462348FEF71FFE94F880
:103680005830DBB2012B0CD0FEF7C6FE1F4B1B6877
:103690005BB91F4B1B68A3420ED038BD1C4B1C6886
:1036A000DFE7002384F85830EEE7FEF793FEFFF7DC
:1036B0000FFCFEF7B1FEECE7144B1B68B3B1154BE2
:1036C0001B6843B14FF0500383F31188BFF36F8F32
:1036D000BFF34F8FFEE74FF0E0234FF08052C3F867
:1036E000042DBFF34F8FBFF36F8FD6E7064B1A68D9
:1036F000094B1B689A4203D1054B00221A60CCE7A4
:10370000FFF760FFC9E700BF441D0020401D0020F7
:1037100074180020EC1C0020E01C002058B110B5EB
:103720000C46094A11681831FEF7D3FD01212046E5
:10373000FFF712FD10BD4FF0500383F31188BFF364
:103740006F8FBFF34F8FFEE77418002038B570B14C
:103750000D4614460A4A11681831FEF7AFFD0CB148
:103760004FF0FF3521462846FFF7F6FC38BD4FF0F5
:10377000500383F31188BFF36F8FBFF34F8FFEE7C2
:103780007418002038B5C368DC6824B304F1180548
:103790002846FEF7B7FD184B1B682BBB251D284696
:1037A000FEF7B0FDE06A154B1B68984201D9134B38
:1037B000186000EB80002946114B03EB8000FEF7F8
:1037C0007DFDE26A0F4B1B68DB6A9A4211D901202A
:1037D0000D4B186038BD4FF0500383F31188BFF3D1
:1037E0006F8FBFF34F8FFEE729460848FEF766FD4F
:1037F000E7E70020EEE700BFEC1C0020F41C0020EF
:103800008018002074180020701D00202C1D00203E
:10381000034B1B680360034B1B684360704700BF8A
:10382000281D00206C1D0020D8B170B50C4605463F
:1038300001B3FEF7CFFD1B4B19686B68C81A2268ED
:10384000B2F1FF3F27D0184E3668D5F800C0B44516
:1038500001D08B4224D9824215D800232360012451
:103860001AE04FF0500383F31188BFF36F8FBFF35B
:103870004F8FFEE74FF0500383F31188BFF36F8F34
:10388000BFF34F8FFEE75B1A134423602846FFF710
:10389000BFFF002400E00024FEF7BEFD204670BDFF
:1038A0000124F9E76C1D0020281D0020014B012296
:1038B0001A607047701D0020054B1B6833B1054B23
:1038C0001B680BB100207047022070470120704731
:1038D000401D0020EC1C002000283BD038B50446D9
:1038E0001E4B1B68834208D04FF0500383F31188AE
:1038F000BFF36F8FBFF34F8FFEE7036D43B94FF0F8
:10390000500383F31188BFF36F8FBFF34F8FFEE730
:10391000013B0365C16AC26C91421DD00BB100200E
:1039200038BD051D2846FEF7EDFCE06CE062C0F1F5
:103930003803A3610A4B1B68984201D9084B1860F1
:1039400000EB80002946074B03EB8000FEF7B6FC36
:103950000120E5E7002070470020E1E7741800200F
:10396000F41C002080180020064B1A681368B3FA74
:1039700083F35B09036013B9D368186870470020AC
:10398000704700BF741D002008B54160006191427E
:103990000CD8D21A83699A4201D3012008BD011DB7
:1039A000094B1868FEF795FC0020F7E79A4201D210
:1039B000994206D2011D054B1868FEF78AFC0020CB
:1039C000ECE70120EAE700BF781D0020741D00200D
:1039D00030B583B0FEF7FEFC114B1B681BB1FEF740
:1039E0001BFD03B030BD0F4D2846FEF759FC0E4CB1
:1039F0002046FEF755FC0D4B1D600D4B1C6000234F
:103A000000930C4B0C4A10210A20FFF700F8044BDE
:103A100018600028E3D00949FFF71CFADFE700BF70
:103A2000981E00201C1E0020301E0020741D002047
:103A3000781D0020481E00207C1D002050740008C6
:103A400010B588B0FFF7C4FF124B1B68CBB1002440
:103A50000594069407AA06A905A8FEF715FC059B80
:103A60000293069B0193022300932346079A0A4977
:103A70000A48FFF7AFFB0A4B186010B1012008B0ED
:103A800010BD4FF0500383F31188BFF36F8FBFF366
:103A90004F8FFEE7981E002058740008813D0008F3
:103AA0009C1E0020B8B19C4603461848006858B3D5
:103AB00000B585B000910192029305291CDCFFF747
:103AC000FBFE022810D000231A4669460F48006802
:103AD000FEF7E6FF15E04FF0500383F31188BFF3C4
:103AE0006F8FBFF34F8FFEE70023069A69460748A2
:103AF0000068FEF7D5FF04E0002362466946FFF741
:103B000093F805B05DF804FB00207047981E002074
:103B100070B582B01A4B1B681A6852B3DB681E6816
:103B2000DC68251D2846FEF7EDFB636A20469847B2
:103B3000E369012BEED1A36933449E4207D263604F
:103B4000246129460E4B1868FEF7C3FBE2E700210B
:103B500000910B4632462046FFF7A4FF0028D9D13A
:103B60004FF0500383F31188BFF36F8FBFF34F8F74
:103B7000FEE7044A106802490860136002B070BD95
:103B8000741D0020781D002038B50546FFF7E6FBC0
:103B90000446074B1B68834205D800232B60044B67
:103BA0001C60204638BDFFF7B3FF01232B60F6E70A
:103BB000441E002070B582B006460D4614490968BF
:103BC000C968CC68201DFEF79DFBE169012904D07E
:103BD000636A2046984702B070BDA16933462A4601
:103BE00031442046FFF7D0FE0028F1D0002100919B
:103BF0000B4632462046FFF755FF0028E8D14FF02C
:103C0000500383F31188BFF36F8FBFF34F8FFEE72D
:103C1000741D002070B582B006460C46FFF796FB77
:103C200001A8FFF7B1FF019B2BBB05460CB9B042C1
:103C30001AD22CB1124B1B681C68B4FA84F46409C4
:103C40002246711B0F4B1868FFF718F9FFF718FC95
:103C500098B94FF0E0234FF08052C3F8042DBFF322
:103C60004F8FBFF36F8F08E0FFF70AFC29463046FD
:103C7000FFF7A0FF01E0FFF703FC02B070BD00BF3B
:103C8000781D0020981E002010B588B002E0049B2B
:103C9000002B0FDA002204A9384B1868FFF72AF826
:103CA000002869D0049B002BF1DA07990698059B40
:103CB0009847ECE7069C636913B1201DFEF722FBD1
:103CC00003A8FFF761FF049B092BE3D801A252F878
:103CD00023F000BFFD3C0008FD3C0008FD3C00084F
:103CE000953C0008433D0008693D0008FD3C000884
:103CF000FD3C0008953C0008433D0008059BA16978
:103D0000024619442046FFF73FFE0028C2D0636AEE
:103D100020469847E369012BBCD1A269002100919C
:103D20000B46059802442046FFF7BCFE0028B1D19F
:103D30004FF0500383F31188BFF36F8FBFF34F8FA2
:103D4000FEE70599A16131B10346024601442046D0
:103D5000FFF71AFE9EE74FF0500383F31188BFF37D
:103D60006F8FBFF34F8FFEE794F82C30002B91D16B
:103D70002046FEF721FD8DE708B010BD981E0020FB
:103D800000B583B001A8FFF7EFFD0199FFF742FFEF
:103D9000FFF77AFFF6E7000070B50D4E0D4D761B6C
:103DA000B61006D0002455F8043B01349847A642CB
:103DB000F9D1094E094D00F0D5F8761BB61006D0A2
:103DC000002455F8043B01349847A642F9D170BD50
:103DD00064740008647400086C740008647400085B
:103DE000830730B548D0541E002A3FD00346CAB2DC
:103DF00001E0013C3AD303F8012B9D07F9D1032CD4
:103E00002DD9CDB245EA05250F2C45EA054536D911
:103E1000A4F1100222F00F0C03F1200EE6444FEA49
:103E2000121C03F1100242E9045542E90255103216
:103E30007245F8D10CF1010214F00C0F03EB0212E1
:103E400004F00F0C13D0ACF1040323F0030304338C
:103E5000134442F8045B9342FBD10CF003042CB1F1
:103E6000CAB21C4403F8012B9C42FBD130BD64460E
:103E70001346002CF4D1F9E703461446BFE71A466F
:103E8000A446E0E7024B13B1024800F005B87047C2
:103E900000000000A53E0008002301461A4618460F
:103EA00000F01AB838B5084B084D5B1B9C1007D0C2
:103EB000043B1D44013C55F804399847002CF9D1C6
:103EC000BDE8384000F054B8707400086C74000805
:103ED000704700BF704700BF2DE9F047DFF87CA0B6
:103EE0000646DAF8000098460F469146FFF7F0FFC5
:103EF0001B4B1B68D3F8484124B365681F2D26DC93
:103F00005EB96B1C0235DAF80000636044F8257076
:103F1000FFF7E0FF0020BDE8F087012304EB8501F7
:103F2000C1F88890D4F88821AB401A43022EC4F817
:103F30008821C1F80881E4D1D4F88C211343C4F856
:103F40008C31DEE703F5A674C3F84841D5E7DAF80B
:103F50000000FFF7BFFF4FF0FF30DCE73804002020
:103F600060740008F8B500BFF8BC08BC9E467047F6
:0C3F7000F8B500BFF8BC08BC9E467047C6
:103F7C0048432D53523034205465737400000000B4
:103F8C0044697374616E6365000000006D6D000020
:103F9C004150505F4D61696E000000004150505F10
:103FAC0048433034000000004150505F4C43440003
:103FBC00B43F0008000000000000000000000000FA
:103FCC0000000000000200001800000000000000CB
:103FDC00000000009C3F00080000000000000000F2
:103FEC0000000000000000000002000018000000AB
:103FFC000000000000000000A83F000800000000C6
:10400C0000000000000000000000000000020000A2
:10401C000000000000000000000000000000000094
:10402C00000000000102030406070809000000005C
:10403C00010203040000000000000000000000006A
:10404C0000000404040404000004000014140A001A
:10405C00000000000000000000000A0A1F0A0A1FEE
:10406C000A0A000000040E1505060C14150E0400B7
:10407C00000012150D152E2C2A1200000000040A47
:10408C000A36151529160000020201000000000076
:10409C0000000000100808040404040408081000C0
:1040AC0002040408080808080404020000000004C4
:1040BC00150E0E150400000000000008083E08084C
:1040CC0000000000000000000000000002020100DF
:1040DC0000000000003F0000000000000000000095
:1040EC00000000000002000000201010080804046A
:1040FC000202010000000E1111111111110E00002D
:10410C000000040604040404040E000000000E1158
:10411C0011080402011F000000000E11100C1010F9
:10412C00110E00000000080C0C0A091F081C0000EE
:10413C0000001F01010F1110110E000000000C12E5
:10414C00010D1311110E000000001E1008080404CC
:10415C000404000000000E11110E1111110E0000CC
:10416C0000000E11111916100906000000000000C5
:10417C000400000000040000000000000004000027
:10418C0000040400000010080402020408100000DF
:10419C00000000003F003F0000000000000002048F
:1041AC00081010080402000000000E11110804048D
:1041BC000004000000001C22292D2D1D221C0000D3
:1041CC00000004040C0A0A1E1233000000000F1237
:1041DC00120E1212120F000000001E11010101013B
:1041EC00110E000000000F1212121212120F00001A
:1041FC0000001F120A0E0A02121F000000001F12FC
:10420C000A0E0A020207000000001C1201013911FB
:10421C00120C000000003312121E12121233000096
:10422C0000001F0404040404041F000000003E08E6
:10423C000808080808080907000037120A060A12BD
:10424C00123700000000070202020202223F0000A7
:10425C0000003B1B1B1B15151535000000003B1205
:10426C0016161A1A1217000000000E111111111156
:10427C00110E000000000F12120E020202070000C5
:10428C0000000E1111111117190E180000000F1259
:10429C00120E0A121237000000001E11010608103F
:1042AC00110F000000001F1504040404040E00008C
:1042BC000000331212121212120C00000000331202
:1042CC00120A0A0C040400000000151515150E0A3C
:1042DC000A0A000000001B0A0A04040A0A1B000058
:1042EC0000001B0A0A0A0404040E000000001F0947
:1042FC0008040402121F00001C0404040404040437
:10430C0004041C0000020204040408080810100035
:10431C000E0808080808080808080E00040A00001F
:10432C000000000000000000000000000000000081
:10433C000000003F0204000000000000000000002C
:10434C0000000000000C121C123C000000030202D2
:10435C00020E1212120E000000000000001C1202CD
:10436C00120C000000181010101C1212123C00004D
:10437C0000000000000C121E021C00000018240497
:10438C00041E0404041E000000000000003C120C7B
:10439C00021C221C00030202020E12121237000031
:1043AC000004040000060404040E000000080800C9
:1043BC00000C08080808080700030202021A0A0683
:1043CC000A1300000007040404040404041F000082
:1043DC0000000000000F151515150000000000006E
:1043EC00000F12121237000000000000000C121215
:1043FC00120C000000000000000F1212120E020737
:10440C0000000000001C1212121C103800000000EA
:10441C00001B06020207000000000000001E020C38
:10442C00101E000000000004041E0404041C000004
:10443C0000000000001B1212123C000000000000E3
:10444C00001B0A0A04040000000000000015150EF1
:10445C000A0A000000000000001B0A040A1B0000EE
:10446C0000000000003312120C08040300000000CE
:10447C00001E0804041E000018080808080C080890
:10448C000808180008080808080808080808080898
:10449C0006040404040804040404060016090000BD
:1044AC000000000000000000000000000000000000
:1044BC0000000000000000000000000808080808C8
:1044CC00080800001818000000486C2412000000B6
:1044DC0000000000000000000000002424247F12D3
:1044EC0012127F12121200000000081C2A2A0A0C59
:1044FC001828282A2A1C0808000000222515151542
:10450C002A585454542200000000000C1212120AB3
:10451C0076252911916E00000006060403000000A8
:10452C0000000000000000000040201010080808E7
:10453C000808081010204000000204080810101091
:10454C0010101008080402000000000008086B1C82
:10455C001C6B080800000000000000000808080898
:10456C007F080808080000000000000000000000A0
:10457C00000000000606040300000000000000001C
:10458C00FE00000000000000000000000000000021
:10459C0000000000060600000000804040202010B3
:1045AC0010080804040202000000001824424242D1
:1045BC004242424224180000000000080E0808087D
:1045CC0008080808083E00000000003C4242422057
:1045DC0020100804427E00000000003C42422018DB
:1045EC0020404042221C00000000002030282424DF
:1045FC0022227E20207800000000007E0202021A97
:10460C0026404042221C0000000000382402021AFE
:10461C0026424242241800000000007E2222101084
:10462C0008080808080800000000003C4242422428
:10463C0018244242423C000000000018244242422E
:10464C0064584040241C00000000000000001818B2
:10465C000000000018180000000000000000000816
:10466C0000000000000808040000004020100804AE
:10467C0002040810204000000000000000007F0031
:10468C0000007F0000000000000000020408102061
:10469C0040201008040200000000003C424246404A
:1046AC0020101000181800000000001C225A55554C
:1046BC0055552D42221C0000000000080818141447
:1046CC00243C224242E700000000001F2222221E4E
:1046DC0022424242221F00000000007C42420101A3
:1046EC0001010142221C00000000001F2242424234
:1046FC0042424242221F00000000003F4212121EA2
:10470C0012120242423F00000000003F4212121EF1
:10471C0012120202020700000000003C22220101DA
:10472C0001712122221C0000000000E7424242429B
:10473C007E42424242E700000000003E08080808A2
:10474C0008080808083E00000000007C101010103B
:10475C00101010101010110F0000007722120A0E0A
:10476C000A12122222770000000000070202020245
:10477C0002020202427F0000000000773636363615
:10478C002A2A2A2A2A6B0000000000E346464A4ADD
:10479C0052525262624700000000001C224141410B
:1047AC0041414141221C00000000003F4242424274
:1047BC003E020202020700000000001C224141419F
:1047CC0041414D53321C60000000003F4242423ECA
:1047DC001212222242C700000000007C4242020456
:1047EC0018204042423E00000000007F49080808A3
:1047FC0008080808081C0000000000E7424242427A
:10480C0042424242423C0000000000E74242222465
:10481C0024141418080800000000006B4949494989
:10482C005555362222220000000000E742242418AD
:10483C001818242442E700000000007722221414E8
:10484C0008080808081C00000000007E2120101039
:10485C0008040442423F00000078080808080808D1
:10486C000808080808087800000002020404080878
:10487C000810102020204040001E101010101010A6
:10488C001010101010101E00003844000000000022
:10489C00000000000000000000000000000000000C
:1048AC0000000000000000FF0006080000000000EF
:1048BC000000000000000000000000000000003CB0
:1048CC004278444242FC0000000000030202021A3B
:1048DC0026424242261A0000000000000000003868
:1048EC00440202024438000000000060404040785E
:1048FC004442424264D80000000000000000003C2A
:10490C00427E0202423C0000000000F08808087E53
:10491C0008080808083E0000000000000000007CA9
:10492C0022221C023C42423C000000030202023ADA
:10493C004642424242E700000000000C0C00000E10
:10494C0008080808083E000000000030300000385D
:10495C00202020202020221E0000000302020272D0
:10496C00120A1612227700000000000E0808080830
:10497C0008080808083E0000000000000000007F46
:10498C009292929292B70000000000000000003B4F
:10499C004642424242E70000000000000000003C9A
:1049AC0042424242423C0000000000000000001B5A
:1049BC0026424242221E020700000000000000783E
:1049CC0044424242447840E000000000000000777E
:1049DC004C040404041F0000000000000000007CD4
:1049EC0042023C40423E0000000000000008083E2D
:1049FC0008080808083000000000000000000063F0
:104A0C004242424262DC000000000000000000E76D
:104A1C00422424140808000000000000000000EBF1
:104A2C004949555522220000000000000000007684
:104A3C0024181818246E000000000000000000E785
:104A4C004224241418080807000000000000007E0F
:104A5C0022100808447E000000C0202020202010D6
:104A6C00202020202020C00010101010101010103A
:104A7C00101010101010101000060808080808106C
:104A8C0008080808080806000C32C20000000000E4
:104A9C00000000000000000000000000000000000A
:104AAC0000000000000000000000000000000000FA
:104ABC0000000000000000000000000000000000EA
:104ACC0000000000000000000000000000000000DA
:104ADC0060006000600060006000600060004000EA
:104AEC00200020002000000000000000600060009A
:104AFC00600000000000000000000000600660067E
:104B0C003003980188004400000000000000000001
:104B1C000000000000000000000000000000000089
:104B2C000000000000000000000000000000000079
:104B3C001002100210021002FE07FE070802080104
:104B4C00080108010801FE07FE0704010401040125
:104B5C000401000000000000000000000000400004
:104B6C004000F00158034C03CC034C00580070007B
:104B7C00E000C001C00140034C035C034C0348013E
:104B8C00F0004000400000000000000000000000A9
:104B9C000E010A01910091009100510051003A0060
:104BAC00AE03A00250045004480448044804840294
:104BBC008403000000000000000000000000000062
:104BCC0038006C006C006C006C006C002C009807BA
:104BDC001C011A01330133016301E300C308C60948
:104BEC003C07000000000000000000000C001C004E
:104BFC00100010000800040000000000000000007D
:104C0C000000000000000000000000000000000098
:104C1C000000000000000000000000000004000282
:104C2C000001800080004000400020002000200097
:104C3C002000200020002000400040008000800068
:104C4C00000100020004000000000000020004004B
:104C5C000800100010002000200040004000400020
:104C6C0040004000400040002000200010001000D8
:104C7C00080004000200000000000000000000001A
:104C8C00000000004000C0004000460C4E0FD00158
:104C9C00F0015E0F460C4000400040000000000098
:104CAC0000000000000000000000000000000000F8
:104CBC0000000000000040004000400040004000A8
:104CCC00FE0F40004000400040004000000000008B
:104CDC0000000000000000000000000000000000C8
:104CEC0000000000000000000000000000000000B8
:104CFC000000000000000000000000000C001C0080
:104D0C00100010000800040000000000000000006B
:104D1C000000000000000000000000000000000087
:104D2C00FE07000000000000000000000000000072
:104D3C000000000000000000000000000000000067
:104D4C000000000000000000000000000000000057
:104D5C000000000000000000000000001C001C000F
:104D6C001C00000000000000000000000004000611
:104D7C0000020003000100018000800040004000A0
:104D8C0060002000200010001000080008000C003B
:104D9C0004000600020000000000000000000000FB
:104DAC000000F00098010C030C030606060606062C
:104DBC00060606060606060606060C030C039801F4
:104DCC00F0000000000000000000000000000000E7
:104DDC00000040007C00600060006000600060002B
:104DEC0060006000600060006000600060006000B7
:104DFC00FC030000000000000000000000000000A8
:104E0C000000F800840102030603060300030001FE
:104E1C008001C0006000200010000802040206029D
:104E2C00FE03000000000000000000000000000075
:104E3C0000007800C6008601860180018001C00058
:104E4C0070008001000100030003060306038601C5
:104E5C00F80000000000000000000000000000004E
:104E6C00000080018001C001A001A0019001880117
:104E7C00880184018201FE0F800180018001800184
:104E8C00E00700000000000000000000000000002F
:104E9C000000FC0304000400040004000400F400FF
:104EAC008C01040300030003060306038201840142
:104EBC00F8000000000000000000000000000000EE
:104ECC000000E00118030C030C0004000600E601CE
:104EDC0016030E0606060606060604060C02180342
:104EEC00F0000000000000000000000000000000C6
:104EFC000000F8070C060402040100010001800008
:104F0C0080004000400040006000600060006000D5
:104F1C006000000000000000000000000000000025
:104F2C000000F8010C030606060606060C021C031C
:104F3C00F000C8010C0306060606060606060C035E
:104F4C00F001000000000000000000000000000064
:104F5C000000F0000C010C0306020606060606060D
:104F6C0006078C0678060006000300030C018C0172
:104F7C0078000000000000000000000000000000AD
:104F8C00000000000000000000000000E000E00055
:104F9C00E00000000000000000000000E000E00065
:104FAC00E000000000000000000000000000000015
:104FBC000000000000000000000000006000600025
:104FCC000000000000000000000000000000600075
:104FDC0060004000200020000000000000000000E5
:104FEC0000040002000180004000200010000800B6
:104FFC0004000800100020004000800000010002A6
:10500C000004000000000000000000000000000090
:10501C00000000000000000000000000FE0700007F
:10502C0000000000FE07000000000000000000006F
:10503C000000000000000000000000000000000064
:10504C000400080010002000400080000001000255
:10505C000004000200018000400020001000080045
:10506C000400000000000000000000000000000030
:10507C000000E0031806040C040C0C0C0C0C0007CC
:10508C00800140004000400000000000E000E00013
:10509C00E000000000000000000000000000000024
:1050AC00E00018030C02CC0564056605A605B604E1
:1050BC00B604B604B604B602E4010C040C021803E0
:1050CC00F0000000000000000000000000000000E4
:1050DC000000600060005000D0009000900088003C
:1050EC0088010801F8010403040304020202020609
:1050FC000F0F000000000000000000000000000086
:10510C000000FE008C030C030C030C030C038C013D
:10511C00FC000C030C020C060C060C060C060C0313
:10512C00FE01000000000000000000000000000074
:10513C000000E00318030C060C040404060006002F
:10514C00060006000600060006040C040C021803F8
:10515C00F000000000000000000000000000000053
:10516C0000007F008C010C030C030C060C060C06D3
:10517C000C060C060C060C060C060C030C038C011E
:10518C007F00000000000000000000000000000094
:10519C000000FF03060306040604060086008600D2
:1051AC00FE00860086008600060006040604060241
:1051BC00FF030000000000000000000000000000E1
:1051CC000000FF03060306040604060086008600A2
:1051DC00FE0086008600860006000600060006001B
:1051EC001F00000000000000000000000000000094
:1051FC000000F00018010C020C020402060006006C
:10520C0006000600C60F060306030C030C03180366
:10521C00F000000000000000000000000000000092
:10522C0000000F0F0606060606060606060606060C
:10523C00FE07060606060606060606060606060609
:10524C000F0F000000000000000000000000000034
:10525C000000FC0360006000600060006000600003
:10526C006000600060006000600060006000600032
:10527C00FC03000000000000000000000000000023
:10528C000000F807C000C000C000C000C000C00093
:10529C00C000C000C000C000C000C000C000C00002
:1052AC00C000C60066003C000000000000000000CA
:1052BC000000CF038601C60046002600160036000B
:1052CC002E006E004600C60086008601060106030D
:1052DC008F0700000000000000000000000000002C
:1052EC0000001F000600060006000600060006006F
:1052FC000600060006000600060006040604060268
:10530C00FF0300000000000000000000000000008F
:10531C0000000707860386038E038E034E034E039D
:10532C004A035A035A033A03320332033203120379
:10533C0087070000000000000000000000000000D3
:10534C0000008E0F0C021C021C0234023402640298
:10535C0064024402C402840284038403040304032D
:10536C001F02000000000000000000000000000010
:10537C000000F00098010C030C0206060606060657
:10538C00060606060606060606060C020C0398011F
:10539C00F000000000000000000000000000000011
:1053AC000000FF00060306060606060606060606AD
:1053BC008603FE0006000600060006000600060036
:1053CC001F000000000000000000000000000000B2
:1053DC000000F00098010C030C02060606060606F7
:1053EC00060606060606060676064C02CC0398014F
:1053FC00F000800700030000000000000000000027
:10540C000000FF010603060606060606060606034E
:10541C00FE004600C600860086010603060306064B
:10542C000F0E000000000000000000000000000053
:10543C000000F8020C030602060206000E003C00F7
:10544C00F800E003800300070206020606060C03C0
:10545C00F00100000000000000000000000000004F
:10546C000000FE07620461086108600060006000D3
:10547C006000600060006000600060006000600020
:10548C00F801000000000000000000000000000017
:10549C0000001E070C020C020C020C020C020C0287
:1054AC000C020C020C020C020C020C020C02180175
:1054BC00F0000000000000000000000000000000F0
:1054CC0000000F070602040104010C010C01880006
:1054DC0088009800980050005000700030002000A8
:1054EC002000000000000000000000000000000090
:1054FC000000F70E6204420446044604640264028F
:10550C00E402E4029C029C01980198018801880045
:10551C0088000000000000000000000000000000F7
:10552C0000009E070C01080118019000B0006000FB
:10553C00200060006000D000900088010801040386
:10554C008E070000000000000000000000000000BA
:10555C0000000F0F060404020C0208011801B80029
:10556C00B0007000600060006000600060006000CF
:10557C00F801000000000000000000000000000026
:10558C000000FC070C0206030201800180004000B1
:10559C004000200020001000180008040C04040235
:1055AC00FE0300000000000000000000E0032000EB
:1055BC0020002000200020002000200020002000DF
:1055CC0020002000200020002000200020002000CF
:1055DC0020002000E003000000000000000000009C
:1055EC000400040008000800100010001000200047
:1055FC00200040004000C00080008000000100013D
:10560C000002000200020004000000007C004000C8
:10561C00400040004000400040004000400040007E
:10562C00400040004000400040004000400040006E
:10563C00400040007C000000000060009000080169
:10564C00000000000000000000000000000000004E
:10565C00000000000000000000000000000000003E
:10566C00000000000000000000000000000000002E
:10567C00000000000000000000000000000000001E
:10568C00000000000000000000000000000000000E
:10569C00000000000000FF0F000000001800600078
:1056AC0000000000000000000000000000000000EE
:1056BC0000000000000000000000000000000000DE
:1056CC0000000000000000000000000000000000CE
:1056DC00000000000000000000000000F0010C03BE
:1056EC000C030003E0031C030E03060306038E0BDE
:1056FC007C0E000000000000000000000000000014
:10570C0008000E000C000C000C000C00CC013C033B
:10571C001C060C060C060C060C060C060C021C03D4
:10572C00E401000000000000000000000000000088
:10573C00000000000000000000000000F0008C01E0
:10574C008C01860106000600060006020C020C0104
:10575C00F00000000000000000000000000000004D
:10576C000002C003000300030003000378038C0352
:10577C000C030603060306030603060304038C0747
:10578C007801000000000000000000000000000094
:10579C00000000000000000000000000E001180301
:1057AC0008020C060C06FC070C000C00180418026E
:1057BC00E0010000000000000000000000000000FC
:1057CC000000C0036006300630003000FE013000DF
:1057DC00300030003000300030003000300030003D
:1057EC00FC010000000000000000000000000000B0
:1057FC00000000000000000000000000F007D806C8
:10580C008C018C018C019801F8000C00FC00CC037D
:10581C00060306038E03F8000000000000000000E1
:10582C0008000E000C000C000C000C00EC011C031A
:10583C000C030C030C030C030C030C030C030C03E4
:10584C009E070000000000000000000000000000A7
:10585C000000600060000000000040007C00600060
:10586C00600060006000600060006000600060002C
:10587C00FC0300000000000000000000000000001D
:10588C000000C001C001000000000001F001800117
:10589C0080018001800180018001800180018001F4
:1058AC0080018001CC007C000000000000000000A2
:1058BC0008000E000C000C000C000C008C038C007B
:1058CC008C004C006C005C008C008C010C010C03F7
:1058DC009E07000000000000000000000000000017
:1058EC0040007C00600060006000600060006000B0
:1058FC00600060006000600060006000600060009C
:10590C00FC0300000000000000000000000000008C
:10591C000000000000000000000000003707EE0649
:10592C00660666066606660666066606660666060B
:10593C00FF0F00000000000000000000000000004D
:10594C00000000000000000000000000EE011C033D
:10595C000C030C030C030C030C030C030C030C03C3
:10596C009E07000000000000000000000000000086
:10597C00000000000000000000000000F000980192
:10598C000C03060606060606060606060C030C03A2
:10599C00F00000000000000000000000000000000B
:1059AC00000000000000000000000000EE011C03DD
:1059BC000C060C060C060C060C060C060C031C0341
:1059CC00EC010C000C003E00000000000000000088
:1059DC0000000000000000000000000078028C03B2
:1059EC000C030603060306030603060304038C03D9
:1059FC00780300030003C007000000000000000053
:105A0C000000000000000000000000009F0358068A
:105A1C003806180018001800180018001800180094
:105A2C00FF0000000000000000000000000000006B
:105A3C00000000000000000000000000F0031C0348
:105A4C000C020C023800F000C003040304038C03A6
:105A5C00FC0100000000000000000000000000003D
:105A6C00000000002000200030003000FE0130005B
:105A7C003000300030003000300030003002300296
:105A8C00E001000000000000000000000000000029
:105A9C000000000000000000000008028E030C0350
:105AAC000C030C030C030C030C030C030C039C07DE
:105ABC007801000000000000000000000000000061
:105ACC000000000000000000000000001E070C0297
